:020000040800F2
:100000000000022069260008512400085724000837
:100010005D24000863240008692400080000000033
:100020000000000000000000000000006F24000835
:100030007B240008000000008724000893240008A7
:10004000B9260008B9260008B9260008B926000814
:10005000B9260008B9260008B9260008B926000804
:10006000B9260008B9260008B9260008B9260008F4
:10007000B9260008B9260008B9260008B9260008E4
:10008000A1240008B9260008B926000800000000D5
:10009000000000000000000000000000B926000879
:1000A000B9260008B9260008B9260008B9260008B4
:1000B000B9260008B9260008B9260008B9260008A4
:1000C000B9260008B9260008B9260008B926000894
:1000D000B9260008B9260008B52400080000000071
:1000E000B9260008B9260008B9260008000000005B
:1000F000000000000000000000000000B926000819
:1001000000000000B9260008C9240008B92600082C
:1001100000000000000000000000000000000000DF
:10012000B9260008B9260008B9260008B926000833
:10013000B9260008000000000000000000000000D8
:10014000000000000000000000000000B9260008C8
:10015000B9260008B9260008B9260008B926000803
:10016000B9260008B92600080000000000000000C1
:10017000000000000000000000000000000000007F
:1001800000000000B9260008000000000000000088
:08019000B9260008B926000899
:1001A00010B5054C237833B9044B13B10448AFF3B1
:1001B00000800123237010BDF0010020000000002A
:1001C000888C000808B5034B1BB103490348AFF303
:1001D000008008BD00000000F4010020888C0008A9
:1001E000034613F8012B002AFBD1181A0138704777
:1001F00001F0FF01102A2BDB10F0070F08D010F8D8
:10020000013B013A8B422DD010F0070F42B3F6D1DB
:10021000F0B441EA012141EA014122F007047FF0F4
:1002200000070023F0E80256083C85EA010586EA4B
:10023000010685FA47F5A3FA87F586FA47F6A5FA87
:1002400087F68EB9EED1F0BC01F0FF0102F0070293
:1002500032B110F8013B013A83EA010313B1F8D13E
:100260000020704701387047002D06BF354603381F
:10027000073815F0010F07D1013015F4807F02BF58
:10028000013015F4C03F0130F0BC0138704700BFA9
:100290004FF0FF0C1CEAD0521EBF1CEAD15392EA69
:1002A0000C0F93EA0C0F6FD01A4480EA010C400245
:1002B00018BF5FEA41211ED04FF0006343EA50109F
:1002C00043EA5111A0FB01310CF00040B1F5000FE1
:1002D0003EBF490041EAD3715B0040EA010062F190
:1002E0007F02FD2A1DD8B3F1004F40EBC25008BF7A
:1002F00020F00100704790F0000F0CF0004C08BF98
:1003000049024CEA502040EA51207F3AC2BFD2F164
:10031000FF0340EAC250704740F400004FF0000372
:10032000013A5DDC12F1190FDCBF00F000407047AC
:10033000C2F10002410021FA02F1C2F1200200FAEA
:1003400002FC5FEA310040F1000053EA4C0308BFB1
:1003500020EADC70704792F0000F00F0004C02BF02
:10036000400010F4000F013AF9D040EA0C0093F07D
:10037000000F01F0004C02BF490011F4000F013BD7
:10038000F9D041EA0C018FE70CEAD15392EA0C0F45
:1003900018BF93EA0C0F0AD030F0004C18BF31F0B0
:1003A000004CD8D180EA010000F00040704790F086
:1003B000000F17BF90F0004F084691F0000F91F02A
:1003C000004F14D092EA0C0F01D142020FD193EAF0
:1003D0000C0F03D14B0218BF084608D180EA010078
:1003E00000F0004040F0FE4040F40000704740F054
:1003F000FE4040F44000704781F0004102E000BF41
:1004000083F0004330B54FEA41044FEA430594EAD4
:10041000050F08BF90EA020F1FBF54EA000C55EA0F
:10042000020C7FEA645C7FEA655C00F0E2804FEAE0
:100430005454D4EB5555B8BF6D420CDD2C4480EAC2
:10044000020281EA030382EA000083EA010180EAF2
:10045000020281EA0303362D88BF30BD11F0004F40
:100460004FEA01314FF4801C4CEA113102D0404276
:1004700061EB410113F0004F4FEA03334CEA1333B1
:1004800002D0524263EB430394EA050F00F0A780C9
:10049000A4F10104D5F1200E0DDB02FA0EFC22FAC4
:1004A00005F2801841F1000103FA0EF2801843FAB8
:1004B00005F359410EE0A5F120050EF1200E012AA9
:1004C00003FA0EFC28BF4CF0020C43FA05F3C018E7
:1004D00051EBE37101F0004507D54FF0000EDCF160
:1004E000000C7EEB00006EEB0101B1F5801F1BD309
:1004F000B1F5001F0CD349085FEA30004FEA3C0C0D
:1005000004F101044FEA445212F5800F80F09A8002
:10051000BCF1004F08BF5FEA500C50F1000041EB06
:10052000045141EA050130BD5FEA4C0C404141EB0A
:100530000101013C28BFB1F5801FE9D291F0000F05
:1005400004BF01460020B1FA81F308BF2033A3F1B4
:100550000B03B3F120020CDA0C3208DD02F1140CAB
:10056000C2F10C0201FA0CF021FA02F10CE002F1E6
:100570001402D8BFC2F1200C01FA02F120FA0CFCDF
:10058000DCBF41EA0C019040E41AA2BF01EB045128
:10059000294330BD6FEA04041F3C1CDA0C340EDC26
:1005A00004F11404C4F1200220FA04F001FA02F369
:1005B00040EA030021FA04F345EA030130BDC4F127
:1005C0000C04C4F1200220FA02F001FA04F340EA1C
:1005D0000300294630BD21FA04F0294630BD94F0CD
:1005E000000F83F4801306BF81F480110134013DB4
:1005F0004EE77FEA645C18BF7FEA655C29D094EA25
:10060000050F08BF90EA020F05D054EA000C04BFA2
:100610001946104630BD91EA030F1EBF002100208D
:1006200030BD5FEA545C05D14000494128BF41F02C
:10063000004130BD14F580043CBF01F5801130BD90
:1006400001F0004545F0FE4141F470014FF000001B
:1006500030BD7FEA645C1ABF194610467FEA655CCC
:100660001CBF0B46024650EA013406BF52EA03356E
:1006700091EA030F41F4002130BD00BF90F0000F5C
:1006800004BF0021704730B54FF4806404F1320498
:100690004FF000054FF0000150E700BF90F0000F51
:1006A00004BF0021704730B54FF4806404F1320478
:1006B00010F0004548BF40424FF000013EE700BF48
:1006C00042004FEAE2014FEA31014FEA02701FBFD8
:1006D00012F07F4393F07F4F81F06051704732F00A
:1006E0007F4208BF704793F07F4F04BF41F4002161
:1006F000704730B54FF4607401F0004521F00041BF
:100700001CE700BF50EA010208BF704730B54FF048
:1007100000050AE050EA010208BF704730B511F049
:10072000004502D5404261EB41014FF4806404F181
:1007300032045FEA915C3FF4D8AE4FF003025FEA07
:10074000DC0C18BF03325FEADC0C18BF033202EB8B
:10075000DC02C2F1200300FA03FC20FA02F001FAE5
:1007600003FE40EA0E0021FA02F11444BDE600BF88
:1007700070B54FF0FF0C4CF4E06C1CEA11541DBF37
:100780001CEA135594EA0C0F95EA0C0F00F0DEF802
:100790002C4481EA030621EA4C5123EA4C5350EAE7
:1007A000013518BF52EA033541F4801143F4801338
:1007B00038D0A0FB02CE4FF00005E1FB02E506F0C9
:1007C0000042E0FB03E54FF00006E1FB03569CF01E
:1007D000000F18BF4EF0010EA4F1FF04B6F5007F24
:1007E00064F5407404D25FEA4E0E6D4146EB060696
:1007F00042EAC62141EA55514FEAC52040EA5E501F
:100800004FEACE2EB4F1FD0C88BFBCF5E06F1ED8C8
:10081000BEF1004F08BF5FEA500E50F1000041EBFF
:10082000045170BD06F0004646EA010140EA0200AC
:1008300081EA0301B4EB5C04C2BFD4EB0C0541EACE
:10084000045170BD41F480114FF0000E013C00F3E3
:10085000AB8014F1360FDEBF002001F0004170BD07
:10086000C4F10004203C35DA0C341BDC04F1140420
:10087000C4F1200500FA05F320FA04F001FA05F2AC
:1008800040EA020001F0004221F0004110EBD37079
:1008900021FA04F642EB06015EEA430E08BF20EAA5
:1008A000D37070BDC4F10C04C4F1200500FA04F348
:1008B00020FA05F001FA04F240EA020001F00041DA
:1008C00010EBD37041F100015EEA430E08BF20EA4D
:1008D000D37070BDC4F1200500FA05F24EEA020E95
:1008E00020FA04F301FA05F243EA020321FA04F0C4
:1008F00001F0004121FA04F220EA020000EBD3707B
:100900005EEA430E08BF20EAD37070BD94F0000F7A
:100910000FD101F00046400041EB010111F4801FAE
:1009200008BF013CF7D041EA060195F0000F18BF5F
:10093000704703F00046520043EB030313F4801F9B
:1009400008BF013DF7D043EA0603704794EA0C0F55
:100950000CEA135518BF95EA0C0F0CD050EA41066B
:1009600018BF52EA4306D1D181EA030101F00041E8
:100970004FF0000070BD50EA410606BF1046194610
:1009800052EA430619D094EA0C0F02D150EA01361C
:1009900013D195EA0C0F05D152EA03361CBF10465D
:1009A00019460AD181EA030101F0004141F0FE41FC
:1009B00041F470014FF0000070BD41F0FE4141F480
:1009C000780170BD70B54FF0FF0C4CF4E06C1CEA80
:1009D00011541DBF1CEA135594EA0C0F95EA0C0F35
:1009E00000F0A7F8A4EB050481EA030E52EA0335F0
:1009F0004FEA013100F088804FEA03334FF0805511
:100A000045EA131343EA12634FEA022245EA11153D
:100A100045EA10654FEA00260EF000419D4208BFEE
:100A2000964244F1FD0404F5407402D25B084FEA9B
:100A30003202B61A65EB03055B084FEA32024FF447
:100A400080104FF4002CB6EB020E75EB030E22BFA4
:100A5000B61A754640EA0C005B084FEA3202B6EB64
:100A6000020E75EB030E22BFB61A754640EA5C0013
:100A70005B084FEA3202B6EB020E75EB030E22BFA3
:100A8000B61A754640EA9C005B084FEA3202B6EBA4
:100A9000020E75EB030E22BFB61A754640EADC0063
:100AA00055EA060E18D04FEA051545EA16754FEAC5
:100AB00006164FEAC30343EA52734FEAC2025FEAE3
:100AC0001C1CC0D111F4801F0BD141EA00014FF072
:100AD00000004FF0004CB6E711F4801F04BF014343
:100AE0000020B4F1FD0C88BFBCF5E06F3FF6AFAE5F
:100AF000B5EB030C04BFB6EB020C5FEA500C50F1EF
:100B0000000041EB045170BD0EF0004E4EEA113171
:100B100014EB5C04C2BFD4EB0C0541EA045170BD78
:100B200041F480114FF0000E013C90E645EA060EBC
:100B30008DE60CEA135594EA0C0F08BF95EA0C0FEA
:100B40003FF43BAF94EA0C0F0AD150EA01347FF432
:100B500034AF95EA0C0F7FF425AF104619462CE709
:100B600095EA0C0F06D152EA03353FF4FDAE10466C
:100B7000194622E750EA410618BF52EA43067FF4BD
:100B8000C5AE50EA41047FF40DAF52EA43057FF44D
:100B9000EBAE12E74FF0FF3C06E000BF4FF0010C58
:100BA00002E000BF4FF0010C4DF804CD4FEA410CBC
:100BB0007FEA6C5C4FEA430C18BF7FEA6C5C1BD089
:100BC00001B050EA410C0CBF52EA430C91EA030F0A
:100BD00002BF90EA020F0020704710F1000F91EA67
:100BE000030F58BF994208BF90422CBFD8176FEA35
:100BF000E37040F0010070474FEA410C7FEA6C5C03
:100C000002D150EA013C07D14FEA430C7FEA6C5C09
:100C1000D6D152EA033CD3D05DF8040B704700BF35
:100C20008446104662468C461946634600E000BF83
:100C300001B5FFF7B7FF002848BF10F1000F01BD55
:100C40004DF808EDFFF7F4FF0CBF012000205DF820
:100C500008FB00BF4DF808EDFFF7EAFF34BF0120A5
:100C600000205DF808FB00BF4DF808EDFFF7E0FF3E
:100C700094BF012000205DF808FB00BF4DF808ED8F
:100C8000FFF7CEFF94BF012000205DF808FB00BFF6
:100C90004DF808EDFFF7C4FF34BF012000205DF8D8
:100CA00008FB00BF4FEA410C7FEA6C5C02D150EABE
:100CB000013C0AD14FEA430C7FEA6C5C02D152EA54
:100CC000033C02D14FF0000070474FF00100704725
:100CD0004FEA410212F5001215D211D56FF4787364
:100CE000B3EB625212D94FEAC12343F0004343EA07
:100CF000505311F0004F23FA02F018BF40427047E2
:100D00004FF00000704750EA013005D111F000406B
:100D100008BF6FF0004070474FF00000704700BF01
:100D20004FEA4102B2F1E04324BFB3F5001CDCF10D
:100D3000FE5C0DD901F0004C4FEAC0024CEA507045
:100D4000B2F1004F40EB830008BF20F00100704774
:100D500011F0804F21D113F13872BCBF01F0004077
:100D6000704741F480114FEA5252C2F11802C2F1A9
:100D7000200C10FA0CF320FA02F018BF40F001002A
:100D80004FEAC1234FEAD32303FA0CFC40EA0C00DC
:100D900023FA02F34FEA4303CCE77FEA625307D119
:100DA00050EA01331EBF4FF0FE4040F44000704750
:100DB00001F0004040F0FE4040F40000704700BFEA
:100DC00080F0004002E000BF81F0004142001FBF00
:100DD0005FEA410392EA030F7FEA226C7FEA236C09
:100DE0006AD04FEA1262D2EB1363C1BFD2184140FE
:100DF00048404140B8BF5B42192B88BF704710F094
:100E0000004F40F4000020F07F4018BF404211F036
:100E1000004F41F4000121F07F4118BF494292EA9E
:100E2000030F3FD0A2F1010241FA03FC10EB0C00CA
:100E3000C3F1200301FA03F100F0004302D5494257
:100E400060EB4000B0F5000F13D3B0F1807F06D304
:100E500040084FEA310102F10102FE2A51D2B1F1FC
:100E6000004F40EBC25008BF20F0010040EA0300F1
:100E70007047490040EB0000013A28BFB0F5000F71
:100E8000EDD2B0FA80FCACF1080CB2EB0C0200FA27
:100E90000CF0AABF00EBC25052421843BCBFD04076
:100EA0001843704792F0000F81F4000106BF80F4F0
:100EB00000000132013BB5E74FEA41037FEA226CB3
:100EC00018BF7FEA236C21D092EA030F04D092F07E
:100ED000000F08BF0846704790EA010F1CBF0020B2
:100EE000704712F07F4F04D1400028BF40F000400F
:100EF000704712F100723CBF00F50000704700F02F
:100F0000004343F0FE4040F4000070477FEA226255
:100F100016BF08467FEA23630146420206BF5FEA26
:100F2000412390EA010F40F4800070474FF0000326
:100F300004E000BF10F0004348BF40425FEA000CED
:100F400008BF704743F0964301464FF000001CE095
:100F500050EA010208BF70474FF000030AE000BFEB
:100F600050EA010208BF704711F0004302D5404229
:100F700061EB41015FEA010C02BF8446014600209B
:100F800043F0B64308BFA3F18053A3F50003BCFAB6
:100F90008CF2083AA3EBC25310DB01FA02FC634463
:100FA00000FA02FCC2F12002BCF1004F20FA02F26A
:100FB00043EB020008BF20F00100704702F120025D
:100FC00001FA02FCC2F1200250EA4C0021FA02F2BE
:100FD00043EB020008BF20EADC7070474FF0FF3C93
:100FE00006E000BF4FF0010C02E000BF4FF0010C23
:100FF0004DF804CD4FEA40024FEA41037FEA226CEC
:1010000018BF7FEA236C11D001B052EA530C18BF0D
:1010100090EA010F58BFB2EB030088BFC81738BF72
:101020006FEAE17018BF40F0010070477FEA226C60
:1010300002D15FEA402C05D17FEA236CE4D15FEA5C
:10104000412CE1D05DF8040B704700BF8446084690
:101050006146FFE70FB5FFF7C9FF002848BF10F151
:10106000000F0FBD4DF808EDFFF7F4FF0CBF012096
:1010700000205DF808FB00BF4DF808EDFFF7EAFF20
:1010800034BF012000205DF808FB00BF4DF808EDDB
:10109000FFF7E0FF94BF012000205DF808FB00BFD0
:1010A0004DF808EDFFF7D2FF94BF012000205DF856
:1010B00008FB00BF4DF808EDFFF7C8FF34BF012063
:1010C00000205DF808FB00BF4FEA4002B2F1FE4F7E
:1010D0000FD34FF09E03B3EB12620DD94FEA0023FA
:1010E00043F0004310F0004F23FA02F018BF4042D3
:1010F00070474FF00000704712F1610F01D14202BA
:1011000005D110F0004008BF6FF0004070474FF06D
:101110000000704753B94AB9002908BF00281CBF16
:101120004FF0FF314FF0FF3000F074B9ADF1080C13
:101130006DE904CE00F006F8DDF804E0DDE90223F5
:1011400004B070472DE9F047089E0D4604468846D6
:10115000002B4DD18A42944668D9B2FA82F252B13C
:1011600001FA02F3C2F1200120FA01F10CFA02FCAB
:1011700041EA030894404FEA1C45210CB8FBF5FEF8
:101180001FFA8CF705FB1E8341EA03430EFB07F1B0
:1011900099420BD91CEB03030EF1FF3080F01E8146
:1011A000994240F21B81AEF1020E63445B1AA4B275
:1011B000B3FBF5F005FB103344EA034400FB07F7EB
:1011C000A7420AD91CEB040400F1FF3380F0088128
:1011D000A74240F2058164440238E41B40EA0E4015
:1011E00000211EB1D4400023C6E90043BDE8F087CA
:1011F0008B4208D9002E00F0EE800021C6E90005E0
:101200000846BDE8F087B3FA83F100294AD1AB4222
:1012100002D3824200F2F980841A65EB03030120B5
:101220009846002EE2D0C6E90048DFE702B9FFDEAB
:10123000B2FA82F2002A40F09180A1EB0C054FEA4D
:101240001C471FFA8CFE0121B5FBF7F307FB135077
:10125000250C45EA00450EFB03F0A84208D91CEB1B
:10126000050503F1FF3802D2A84200F2CB804346C5
:101270002D1AA4B2B5FBF7F007FB105544EA05445C
:101280000EFB00FEA64508D91CEB040400F1FF3557
:1012900002D2A64500F2BB802846A4EB0E0440EA29
:1012A00003409EE7C1F120078B4022FA07FC4CEA7D
:1012B000030C20FA07F405FA01F31C43FD404FEA42
:1012C0001C4900FA01F3B5FBF9F8200C1FFA8CFE5B
:1012D00009FB185540EA054508FB0EF0A84202FA42
:1012E00001F20BD91CEB050508F1FF3A80F088806C
:1012F000A84240F28580A8F1020865442D1AA4B2E4
:10130000B5FBF9F009FB105544EA054500FB0EFE5C
:10131000AE4508D91CEB050500F1FF346CD2AE4593
:101320006AD90238654440EA0840A0FB0294A5EB64
:101330000E05A542C846A64656D353D05EB1B3EBC0
:10134000080265EB0E0505FA07F722FA01F3CD4016
:101350001F43C6E900750021BDE8F087C2F12003F4
:1013600020FA03F10CFA02FC25FA03F395400D4331
:101370004FEA1C471FFA8CFEB3FBF7F107FB113055
:101380002B0C43EA004301FB0EF0984204FA02F4EE
:1013900008D91CEB030301F1FF382FD298422DD955
:1013A000023963441B1AADB2B3FBF7F007FB1033ED
:1013B00045EA034500FB0EF3AB4208D91CEB0505DB
:1013C00000F1FF3816D2AB4214D902386544ED1A49
:1013D00040EA014138E73146304607E78646E5E610
:1013E0001846FAE64B45A9D2B9EB020864EB0C0E9D
:1013F0000138A3E74046EAE7204694E74146D1E7B3
:10140000D0467BE7023B654432E7084609E764447F
:10141000023842E7704700BF80B483B000AF786005
:101420007B68012B01D802237B60124A7B68013B59
:10143000D362104B01225A610E4B1B690D4A23F0F7
:10144000010313610B4B1B680A4A43F0010313604D
:1014500000BF084B1B6903F00103012BF9D1054BB9
:101460001B69044A23F00103136100BF0C37BD461A
:1014700080BC70470040014080B483B000AF78600A
:10148000074B1B687A6892FBF3F3064A1360064B1E
:1014900000221A6000BF0C37BD4680BC704700BFF9
:1014A00000000020600400206404002080B400AF2D
:1014B000094B1B68002B04DD074B1B68013B064AE8
:1014C0001360054B1B68002B02D1044B01221A60EC
:1014D00000BFBD4680BC704760040020640400204B
:1014E00080B582B000AF01F0E9F800F031F900F00A
:1014F00001FC00F02FFB00F0DDFB00F0B1FB00F081
:101500008FF900F0E5F900F059FA00F0ABFA00F0BD
:101510006FFB7A4802F01EFC0421794802F028FE95
:101520000021784802F0CEFC764B1B6864225A6397
:1015300001224FF48041744801F04DFF00224FF426
:101540000041714801F047FF0421704802F010FE8D
:1015500000216F4802F0B6FC6D4B1B6864225A6391
:1015600000220121684801F036FF0122022166486D
:1015700001F031FF00237B6021E0786800F0D0FCAF
:10158000024664497B6841F82320624A7B6852F82E
:1015900023301846FFF794F802460B465E495F4831
:1015A00005F00CF95D48FEF71BFE03469AB2642372
:1015B0005A495B4803F0ABFC7B6801337B607B6876
:1015C000022BDADD4FF480514F4801F0EDFE034667
:1015D0001A46544B1A6001F0D5F80346524A126875
:1015E0009B1A524A1268934279D301F0CBF8034612
:1015F0001A464D4B1A60424B1B685B6A9AB24C4BC1
:101600001A80424B1B685B6A9AB2494B5A80484B1E
:101610005B881A46464B1B88D31A464A1360434BD5
:101620001B684FF47A7292FBF3F3414A528803FB32
:1016300002F213461B019B1A9B003F4A82FB0312D6
:101640005212DB17D31A9AB23C4B5A80374B1B68A5
:101650004FF47A7292FBF3F3354A128803FB02F2DD
:1016600013461B019B1A9B00334A82FB0312521242
:10167000DB17D31A9AB2314B1A80314B5B8818466C
:10168000304B5B8819462D4B5B881A46012300F0CE
:10169000A7FB03469AB22A4B5A80294B1B8818464F
:1016A000284B1B881946254B1B881A46002300F03F
:1016B00097FB03469AB2224B1A80114B1B680022FB
:1016C0005A62124B1B6800225A621D4B1A880D4B3E
:1016D0001B685A631A4B5A880D4B1B685A631A4B86
:1016E0001B68012B7FF446AF184B1B68002B3FF49F
:1016F00041AF4FF47A70FFF7BFFE3BE72C030020A9
:101700000C02002054020020000402409C02002031
:10171000E40200206C040020A08C00087804002063
:10172000BC030020DC040020E004002004000020B2
:10173000E4040020F00400201F85EB51E8040020A1
:10174000EC0400200800002064040020680400204D
:1017500080B594B000AF07F1200330220021184675
:1017600004F0C8FB07F10C0300221A605A609A606B
:10177000DA601A610023BB60274B1B6C264A43F0DA
:1017800080531364244B1B6C03F08053BB60BB6815
:1017900000237B60214B1B68204A43F440431360C5
:1017A0001E4B1B6803F440437B607B6801233B6254
:1017B0004FF480337B620223BB634FF48003FB63EF
:1017C0000C233B6460237B640223BB640423FB641F
:1017D00007F12003184601F017FE0346002B01D045
:1017E00000F098FB0F23FB6002233B6100237B6129
:1017F0004FF48053BB610023FB6107F10C0303210D
:10180000184602F079F80346002B01D000F082FB65
:1018100000BF5037BD4680BD003802400070004018
:1018200080B58CB000AF07F10C03242200211846CC
:1018300004F060FB3B1D00221A605A60224B234AD1
:101840001A60214B00225A601F4B00229A601E4BE7
:101850004FF6FF72DA601C4B00221A611A4B00220D
:101860005A61194B00229A610323FB6000233B61FC
:1018700001237B610023BB610023FB6100233B62EA
:1018800001237B620023BB620023FB6207F10C0390
:1018900019460D4802F0C6FB0346002B01D000F0AC
:1018A00039FB00237B600023BB603B1D19460648C3
:1018B00003F062FA0346002B01D000F02BFB00BFBF
:1018C0003037BD4680BD00BF0C0200200000014043
:1018D00080B58EB000AF07F1280300221A605A606D
:1018E0009A60DA6007F1200300221A605A603B1DFB
:1018F00000221A605A609A60DA601A615A619A612D
:101900002D4B4FF080421A602B4B40F2CF725A6041
:10191000294B00229A60284B40F2E732DA60264BCE
:1019200000221A61244B00229A61234802F0C2F976
:101930000346002B01D000F0EDFA4FF48053BB6258
:1019400007F1280319461C4802F06AFE0346002BE3
:1019500001D000F0DFFA184802F05CFA0346002BD1
:1019600001D000F0D7FA00233B6200237B6207F12D
:1019700020031946104803F0FFF90346002B01D05D
:1019800000F0C8FA60237B600023BB600023FB608B
:1019900000237B613B1D00221946074802F07EFDB3
:1019A0000346002B01D000F0B5FA034800F06EFCAE
:1019B00000BF3837BD4680BD5402002080B58CB0D2
:1019C00000AF07F10C0324220021184604F092FA1C
:1019D0003B1D00221A605A60204B214A1A601F4B9F
:1019E00000225A601D4B00229A601C4B4FF6FF727A
:1019F000DA601A4B00221A61184B00229A61032305
:101A0000FB6000233B6101237B610023BB6100235A
:101A1000FB6100233B6201237B620023BB62002346
:101A2000FB6207F10C0319460C4802F0FBFA03466F
:101A3000002B01D000F06EFA00237B600023BB6016
:101A40003B1D1946054803F097F90346002B01D0CA
:101A500000F060FA00BF3037BD4680BD9C02002018
:101A60000004004080B58EB000AF07F128030022CB
:101A70001A605A609A60DA6007F1200300221A6047
:101A80005A603B1D00221A605A609A60DA601A613F
:101A90005A619A612D4B2E4A1A602C4B40F2CF723C
:101AA0005A602A4B00229A60284B40F2E732DA60F3
:101AB000264B00221A61254B00229A61234802F02E
:101AC000F9F80346002B01D000F024FA4FF48053BC
:101AD000BB6207F1280319461C4802F0A1FD03462A
:101AE000002B01D000F016FA184802F093F90346D3
:101AF000002B01D000F00EFA00233B6200237B6232
:101B000007F120031946114803F036F90346002B6C
:101B100001D000F0FFF960237B600023BB6000234D
:101B2000FB6000237B613B1D00221946074802F041
:101B3000B5FC0346002B01D000F0ECF9034800F09F
:101B4000A5FB00BF3837BD4680BD00BFE4020020C2
:101B50000008004080B586B000AF07F108030022FE
:101B60001A605A609A60DA603B4600221A605A6036
:101B70001D4B1E4A1A601C4B40F2E7325A601A4B4A
:101B800000229A60184B40F2E732DA60164B0022CE
:101B90001A61154B00229A61134802F08BF8034634
:101BA000002B01D000F0B6F94FF48053BB6007F171
:101BB000080319460C4802F033FD0346002B01D000
:101BC00000F0A8F900233B6000237B603B461946E8
:101BD000054803F0D1F80346002B01D000F09AF934
:101BE00000BF1837BD4680BD2C030020000C00400C
:101BF00080B584B000AF3B4600221A605A609A60FC
:101C0000DA60154B154A1A60134B63225A60124B67
:101C100000229A60104B0022DA600F4B00221A61FA
:101C20000D4B00229A610C4802F044F80346002B49
:101C300001D000F06FF94FF480533B603B461946EA
:101C4000054802F0EDFC0346002B01D000F062F9DC
:101C500000BF1037BD4680BD740300200040014026
:101C600080B500AF114B124A1A60104B4FF4E132AD
:101C70005A600E4B00229A600C4B0022DA600B4B2C
:101C800000221A61094B0C225A61084B00229A610A
:101C9000064B0022DA61054803F0ECF80346002BFE
:101CA00001D000F037F900BF80BD00BFBC030020A9
:101CB0000044004080B582B000AF00237B600C4B35
:101CC0001B6B0B4A43F400131363094B1B6B03F4A8
:101CD00000137B607B6800220021102000F033FE9F
:101CE000102000F04CFE00BF0837BD4680BD00BF8D
:101CF0000038024080B588B000AF07F10C03002225
:101D00001A605A609A60DA601A610023BB60314B36
:101D10001B6B304A43F0800313632E4B1B6B03F0A5
:101D20008003BB60BB6800237B602A4B1B6B294A86
:101D300043F001031363274B1B6B03F001037B602C
:101D40007B6800233B60234B1B6B224A43F002035A
:101D50001363204B1B6B03F002033B603B680022C4
:101D600048F620011C4801F036FB00224DF2030129
:101D70001A4801F030FB44F21043FB6000233B6142
:101D800000237B6107F10C031946134801F08AF91F
:101D900048F62003FB6001233B6100237B610023A5
:101DA000BB6107F10C0319460B4801F07BF94DF2BA
:101DB0000303FB6001233B6100237B610023BB61C4
:101DC00007F10C031946054801F06CF900BF2037F4
:101DD000BD4680BD003802400000024000040240C1
:101DE00090B587B000AFF860B9607A603B604FF0A3
:101DF00000037B61BB6883EAE372A2EBE3727B685A
:101E0000002BB8BF5B42D21A38493B6841F8232007
:101E1000364A3B6852F823301846FFF78BF80246E3
:101E2000334B1B6819461046FEF732FA03461C4630
:101E30002E4A3B6852F823202E493B6851F8233044
:101E4000D31A1846FFF776F802462B4B1B68194643
:101E50001046FEF71DFA034619462046FEF7B6FF68
:101E600003467B61214A3B6852F8232021493B68A5
:101E700041F82320F868FFF75DF8034679691846B2
:101E8000FEF7A4FF03461D491846FFF709F903466C
:101E9000002B03D040F2E733FB6021E0F868FFF746
:101EA00049F8034679691846FEF790FF03464FF05C
:101EB00000011846FFF7E0F80346002B02D000238C
:101EC000FB600DE0F868FFF735F8034679691846BE
:101ED000FEF77CFF03461846FFF7F6F80346FB6063
:101EE000FB6818461C37BD4690BD00BFF4040020B7
:101EF0000C000020FC0400201000002000C07944E9
:101F000080B582B000AF7860FFF7D0FA00BF083725
:101F1000BD4680BD80B400AF72B600BFFEE70000D2
:101F2000B0B582B000AF78604F4A7B681B011344A4
:101F300018684D4A7B681B01134404331B88002238
:101F4000194601F048FA0320FFF766FA464A7B6813
:101F50001B0113441868444A7B681B011344043373
:101F60001B880122194601F036FA0A20FFF754FABD
:101F70003D4A7B681B01134418683B4A7B681B0180
:101F8000134404331B880022194601F024FA00BFD1
:101F9000354A7B681B01134408331A6832497B6851
:101FA0001B010B440C331B881946104601F0FCF949
:101FB0000346002BECD02D4B00221A6007E02B4B80
:101FC0001B680133294A13600220FFF725FA264ACD
:101FD0007B681B01134408331A6823497B681B0183
:101FE0000B440C331B881946104601F0DDF90346FB
:101FF000012BE4D01D4B1B681846FEF797FF0346E4
:102000004FF000011846FEF7E1FE03461846FEF7C2
:1020100057FB13A3D3E90023FEF7AAFB02460B46A6
:1020200014461D46124B1846FEF74AFB02460B4665
:1020300020462946FEF79CFB02460B4610461946F1
:10204000FEF76EFE02460B497B6841F82320094AE1
:102050007B6852F8233018460837BD46B0BD00BF34
:102060006666666666660640B88C00080405002051
:10207000287E8C3C0805002080B483B000AF00238C
:102080007B600F4B5B6C0E4A43F4804353640C4BF4
:102090005B6C03F480437B607B6800233B60084BF0
:1020A0001B6C074A43F080531364054B1B6C03F011
:1020B00080533B603B6800BF0C37BD4680BC704717
:1020C0000038024080B58CB000AF786007F11C0387
:1020D00000221A605A609A60DA601A617B681B6895
:1020E000324A93422DD10023BB61314B5B6C304AA5
:1020F00043F0010353642E4B5B6C03F00103BB619F
:10210000BB6900237B612A4B1B6B294A43F0010307
:102110001363274B1B6B03F001037B617B694FF457
:102120004073FB6102233B6200237B620023BB629E
:102130000123FB6207F11C0319461E4800F0B2FFA1
:1021400030E07B681B681C4A93422BD100233B6123
:10215000174B1B6C164A43F002031364144B1B6CA1
:1021600003F002033B613B690023FB60104B1B6BD8
:102170000F4A43F0010313630D4B1B6B03F0010384
:10218000FB60FB68C023FB6102233B6200237B6290
:102190000023BB620223FB6207F11C0319460548BA
:1021A00000F080FF00BF3037BD4680BD0000014019
:1021B00000380240000002400004004080B586B0B4
:1021C00000AF78607B681B68B3F1804F0ED10023AD
:1021D0007B612A4B1B6C294A43F001031364274B94
:1021E0001B6C03F001037B617B6942E07B681B6829
:1021F000234A93420ED100233B61204B1B6C1F4AA4
:1022000043F0040313641D4B1B6C03F004033B6198
:102210003B692EE07B681B681A4A934216D1002363
:10222000FB60164B1B6C154A43F008031364134BF9
:102230001B6C03F00803FB60FB68002200213220C6
:1022400000F081FB322000F09AFB12E07B681B68F3
:102250000D4A93420DD10023BB60084B5B6C074ACB
:1022600043F480335364054B5B6C03F48033BB60F1
:10227000BB6800BF1837BD4680BD00BF00380240B4
:1022800000080040000C00400040014080B58AB0CA
:1022900000AF786007F1140300221A605A609A6058
:1022A000DA601A617B681B68B3F1804F1ED100238E
:1022B0003B61224B1B6B214A43F0010313631F4B0D
:1022C0001B6B03F001033B613B6901237B6102232C
:1022D000BB610023FB6100233B6201237B6207F1AA
:1022E00014031946164800F0DDFE22E07B681B68E7
:1022F000144A93421DD10023FB60104B1B6B0F4A05
:1023000043F0020313630D4B1B6B03F00203FB60EE
:10231000FB6840237B610223BB610023FB61002338
:102320003B6202237B6207F114031946064800F062
:10233000B9FE00BF2837BD4680BD00BF003802404F
:1023400000000240000800400004024080B58AB04E
:1023500000AF786007F1140300221A605A609A6097
:10236000DA601A617B681B68344A934261D10023AA
:102370003B61334B1B6C324A43F400331364304BE4
:102380001B6C03F400333B613B690023FB602C4B67
:102390001B6B2B4A43F001031363294B1B6B03F0A8
:1023A0000103FB60FB680C237B610223BB610023FC
:1023B000FB6103233B6207237B6207F11403194689
:1023C000204800F06FFE204B204A1A601E4B4FF051
:1023D00000625A601C4B00229A601B4B0022DA609C
:1023E000194B4FF480621A61174B00225A61164B49
:1023F00000229A61144B0022DA61134B00221A6208
:10240000114B00225A62104800F0D4FA0346002B08
:1024100001D0FFF77FFD7B680B4A9A630A4A7B680D
:10242000936300220021262000F08DFA262000F080
:10243000A6FA00BF2837BD4680BD00BF004400405B
:102440000038024000000240000400208860024082
:1024500080B400AFFEE780B400AFFEE780B400AF09
:10246000FEE780B400AFFEE780B400AFFEE780B4C3
:1024700000AF00BFBD4680BC704780B400AF00BF56
:10248000BD4680BC704780B400AF00BFBD4680BC75
:10249000704780B500AF00F063F900BF80BD000059
:1024A00080B500AF024800F0C5FB00BF80BD00BF93
:1024B0000004002080B500AF024802F0BBFD00BF61
:1024C00080BD00BFBC03002080B500AF024801F012
:1024D000DDFE00BF80BD00BF2C03002080B400AF34
:1024E00001231846BD4680BC704780B582B000AF5E
:1024F0007860396003F0D4FC034616221A604FF06E
:10250000FF3318460837BD4680BD80B582B000AFA6
:1025100078604FF0FF317868FFF7E7FFFEE780B59E
:1025200086B000AFF860B9607A6000237B610AE092
:10253000AFF300800146BB685A1CBA60CAB21A7079
:102540007B6901337B617A697B689A42F0DB7B6847
:1025500018461837BD4680BD80B586B000AFF8601C
:10256000B9607A6000237B6109E0BB685A1CBA60DD
:102570001B781846AFF300807B6901337B617A6971
:102580007B689A42F1DB7B6818461837BD4680BDF0
:1025900080B483B000AF78604FF0FF3318460C373B
:1025A000BD4680BC704780B483B000AF78603960AE
:1025B0003B684FF400525A60002318460C37BD4662
:1025C00080BC704780B483B000AF786001231846A8
:1025D0000C37BD4680BC704780B485B000AFF86052
:1025E000B9607A60002318461437BD4680BC704736
:1025F00080B586B000AF7860144A154BD31A7B6162
:102600007B693B61134B1B68002B02D1114B124AB3
:102610001A60104B1A687B6813443A699A4207D2D1
:1026200003F03EFC03460C221A604FF0FF3309E032
:10263000084B1B68FB60074B1A687B681344054A0C
:102640001360FB6818461837BD4680BD00000220A5
:1026500000040000140500203005002080B400AF05
:1026600000BFBD4680BC7047DFF834D00D480E492E
:102670000E4A002302E0D458C4500433C4188C42DC
:10268000F9D30B4A0B4C002301E013600432A24241
:10269000FBD3FFF7E3FF03F009FCFEF721FF7047D0
:1026A0000000022000000020F0010020F49000084B
:1026B000F00100202C050020FEE7000080B500AFEF
:1026C0000E4B1B680D4A43F4007313600B4B1B68E1
:1026D0000A4A43F480631360084B1B68074A43F4BB
:1026E00080731360032000F023F90F2000F008F836
:1026F000FFF7C2FC0023184680BD00BF003C02402B
:1027000080B582B000AF7860124B1A68124B1B780C
:1027100019464FF47A73B3FBF1F3B2FBF3F31846A7
:1027200000F03BF90346002B01D001230EE07B684B
:102730000F2B0AD8002279684FF0FF3000F003F920
:10274000064A7B681360002300E00123184608371F
:10275000BD4680BD140000201C0000201800002091
:1027600080B400AF054B1B781A46054B1B68134419
:10277000034A136000BFBD4680BC70471C000020A8
:102780001805002080B400AF024B1B681846BD46F8
:1027900080BC70471805002080B485B000AF786019
:1027A0007B6803F00703FB600C4BDB68BB60BA6817
:1027B0004FF6FF031340BB60FB681A02BB6813436C
:1027C00043F0BF6343F40033BB60044ABB68D3608B
:1027D00000BF1437BD4680BC704700BF00ED00E06D
:1027E00080B400AF044BDB681B0A03F007031846F4
:1027F000BD4680BC704700BF00ED00E080B483B0F0
:1028000000AF0346FB7197F90730002B0BDBFB7918
:1028100003F01F02064997F907305B09012000FA0F
:1028200002F241F8232000BF0C37BD4680BC704740
:1028300000E100E080B483B000AF03463960FB7173
:1028400097F90730002B0ADB3B68DAB20C4997F99D
:1028500007301201D2B20B4483F800230AE03B6830
:10286000DAB20849FB7903F00F03043B1201D2B23C
:102870000B441A7600BF0C37BD4680BC704700BFC2
:1028800000E100E000ED00E080B489B000AFF86046
:10289000B9607A60FB6803F00703FB61FB69C3F171
:1028A0000703042B28BF0423BB61FB690433062BF9
:1028B00002D9FB69033B00E000237B614FF0FF324C
:1028C000BB6902FA03F3DA43BB681A407B699A409A
:1028D0004FF0FF317B6901FA03F3D9437B680B406A
:1028E000134318462437BD4680BC704780B582B07C
:1028F00000AF78607B68013BB3F1807F01D3012397
:102900000FE00A4A7B68013B53600F214FF0FF3014
:10291000FFF790FF054B00229A60044B07221A60D4
:10292000002318460837BD4680BD00BF10E000E018
:1029300080B582B000AF78607868FFF72DFF00BFE8
:102940000837BD4680BD80B586B000AF0346B9608C
:102950007A60FB7300237B61FFF742FF78617A683E
:10296000B9687869FFF790FF024697F90F30114672
:102970001846FFF75FFF00BF1837BD4680BD80B522
:1029800082B000AF0346FB7197F907301846FFF796
:1029900035FF00BF0837BD4680BD80B582B000AFAF
:1029A00078607868FFF7A2FF034618460837BD46EF
:1029B00080BD000080B586B000AF786000237B61E9
:1029C000FFF7E0FE38617B68002B01D1012399E01D
:1029D0007B68022283F835207B68002283F834204C
:1029E0007B681B681A687B681B6822F001021A600A
:1029F0000FE0FFF7C7FE02463B69D31A052B08D943
:102A00007B6820225A657B68032283F835200323E4
:102A100078E07B681B681B6803F00103002BE8D19A
:102A20007B681B681B687B617A69384B13407B614C
:102A30007B685A687B689B681A437B68DB681A432B
:102A40007B681B691A437B685B691A437B689B69D7
:102A50001A437B68DB691A437B681B6A13437A69F4
:102A600013437B617B685B6A042B07D17B68DA6A5E
:102A70007B681B6B13437A6913437B617B681B681C
:102A80007A691A607B681B685B697B617B6923F0EC
:102A900007037B617B685B6A7A6913437B617B68B0
:102AA0005B6A042B17D17B689B6A7A6913437B614D
:102AB0007B68DB6A002B0ED0786800F079FA034659
:102AC000002B08D07B6840225A657B68012283F87E
:102AD0003520012316E07B681B687A695A617868A3
:102AE00000F032FA0346FB607B68DB6D3F229A40C0
:102AF000FB689A607B6800225A657B68012283F834
:102B00003520002318461837BD4680BD3F8010F0A1
:102B100080B584B000AF78607B689B6DFB60FFF789
:102B200031FEB8607B6893F83530DBB2022B08D0F9
:102B30007B6880225A657B68002283F83420012359
:102B400052E07B681B681A687B681B6822F01602DB
:102B50001A607B681B685A697B681B6822F08002D8
:102B60005A617B681B6C002B03D17B689B6C002B2C
:102B700007D07B681B681A687B681B6822F0080214
:102B80001A607B681B681A687B681B6822F0010268
:102B90001A6013E0FFF7F6FD0246BB68D31A052B57
:102BA0000CD97B6820225A657B68032283F8352084
:102BB0007B68002283F83420032315E07B681B68C0
:102BC0001B6803F00103002BE4D17B68DB6D3F221F
:102BD0009A40FB689A607B68012283F835207B6805
:102BE000002283F83420002318461037BD4680BDEC
:102BF00080B483B000AF78607B6893F83530DBB287
:102C0000022B04D07B6880225A6501230CE07B688C
:102C1000052283F835207B681B681A687B681B686F
:102C200022F001021A60002318460C37BD4680BC12
:102C30007047000080B586B000AF78600023BB60AD
:102C40008E4B1B688E4AA2FB03239B0A7B617B6829
:102C50009B6D3B613B691B68FB607B68DB6D0822F9
:102C60009A40FB681340002B1AD07B681B681B68D6
:102C700003F00403002B13D07B681B681A687B6881
:102C80001B6822F004021A607B68DB6D08229A4000
:102C90003B699A607B685B6D43F001027B685A6513
:102CA0007B68DB6D01229A40FB681340002B12D039
:102CB0007B681B685B6903F08003002B0BD07B688B
:102CC000DB6D01229A403B699A607B685B6D43F043
:102CD00002027B685A657B68DB6D04229A40FB68C0
:102CE0001340002B12D07B681B681B6803F00203A3
:102CF000002B0BD07B68DB6D04229A403B699A6005
:102D00007B685B6D43F004027B685A657B68DB6D12
:102D100010229A40FB681340002B43D07B681B684D
:102D20001B6803F00803002B3CD07B68DB6D10228E
:102D30009A403B699A607B681B681B6803F4802398
:102D4000002B18D07B681B681B6803F40023002B42
:102D500008D17B681B6C002B24D07B681B6C7868C7
:102D600098471FE07B689B6C002B1BD07B689B6C9B
:102D70007868984716E07B681B681B6803F48073CB
:102D8000002B07D17B681B681A687B681B6822F0E0
:102D900008021A607B681B6C002B03D07B681B6CDD
:102DA000786898477B68DB6D20229A40FB68134067
:102DB000002B00F08F807B681B681B6803F01003FA
:102DC000002B00F087807B68DB6D20229A403B69F6
:102DD0009A607B6893F83530DBB2052B36D17B687F
:102DE0001B681A687B681B6822F016021A607B68F1
:102DF0001B685A697B681B6822F080025A617B68F5
:102E00001B6C002B03D17B689B6C002B07D07B686D
:102E10001B681A687B681B6822F008021A607B68CE
:102E2000DB6D3F229A403B699A607B68012283F800
:102E300035207B68002283F834207B681B6D002BD3
:102E40007ED07B681B6D7868984779E07B681B684B
:102E50001B6803F48023002B1DD07B681B681B6854
:102E600003F40023002B0DD17B685B6C002B31D069
:102E70007B685B6C786898472CE000BF14000020EA
:102E8000B5814E1B7B68DB6B002B23D07B68DB6B33
:102E9000786898471EE07B681B681B6803F48073A2
:102EA000002B0FD17B681B681A687B681B6822F0B7
:102EB00010021A607B68012283F835207B680022AB
:102EC00083F834207B68DB6B002B03D07B68DB6BE3
:102ED000786898477B685B6D002B32D07B685B6DB0
:102EE00003F00103002B22D07B68052283F83520F4
:102EF0007B681B681A687B681B6822F001021A60F5
:102F0000BB680133BB607A699A4207D37B681B6850
:102F10001B6803F00103002BF2D100E000BF7B68C7
:102F2000012283F835207B68002283F834207B68F7
:102F3000DB6C002B05D07B68DB6C7868984700E081
:102F400000BF1837BD4680BD80B485B000AF786043
:102F50007B681B68DBB2103B134AA2FB03231B09EF
:102F6000FB60124AFB6813441B781A467B68DA65DB
:102F7000FB68032B09D97B681B6823F47F7323F05C
:102F800003031A1D7B689A6507E07B681B6823F4BE
:102F90007F7323F003037A6893657B689B6D184603
:102FA0001437BD4680BC7047ABAAAAAA008D0008A2
:102FB00080B485B000AF78600023FB737B689B6AA8
:102FC000BB607B689B69002B1FD1BB68032B56D865
:102FD00001A252F823F000BFE92F0008FB2F0008E0
:102FE000E92F00087F3000087B68DB6A03F08073FC
:102FF000002B46D00123FB7343E07B68DB6AB3F10F
:10300000C07F40D10123FB733DE07B689B69B3F532
:10301000005F21D1BB68032B37D801A252F823F0FF
:1030200031300008373000083130000849300008DE
:103030000123FB7330E07B68DB6A03F08073002BB5
:1030400025D00123FB7322E07B68DB6AB3F1C07FEC
:103050001FD10123FB731CE0BB68022B03D9BB68A3
:10306000032B03D018E00123FB7315E07B68DB6AB8
:1030700003F08073002B0ED00123FB730BE000BF25
:103080000AE000BF08E000BF06E000BF04E000BFA8
:1030900002E000BF00E000BFFB7B18461437BD46CE
:1030A00080BC704780B489B000AF7860396000237D
:1030B0007B6100233B610023BB610023FB6159E17D
:1030C0000122FB6902FA03F37B613B681B687A69A2
:1030D00013403B613A697B699A4240F048813B6802
:1030E0005B6803F00303012B05D03B685B6803F0CA
:1030F0000303022B30D17B689B68BB61FB695B00DB
:10310000032202FA03F3DB43BA691340BB613B6855
:10311000DA68FB695B0002FA03F3BA691343BB6127
:103120007B68BA699A607B685B68BB610122FB6956
:1031300002FA03F3DB43BA691340BB613B685B6887
:103140001B0903F00102FB6902FA03F3BA69134396
:10315000BB617B68BA695A603B685B6803F0030334
:10316000032B17D07B68DB68BB61FB695B00032224
:1031700002FA03F3DB43BA691340BB613B689A6808
:10318000FB695B0002FA03F3BA691343BB617B6816
:10319000BA69DA603B685B6803F00303022B23D152
:1031A000FB69DA087B68083253F82230BB61FB699F
:1031B00003F007039B000F2202FA03F3DB43BA6913
:1031C0001340BB613B681A69FB6903F007039B006E
:1031D00002FA03F3BA691343BB61FB69DA087B683F
:1031E0000832B96943F822107B681B68BB61FB6930
:1031F0005B00032202FA03F3DB43BA691340BB61AD
:103200003B685B6803F00302FB695B0002FA03F3AF
:10321000BA691343BB617B68BA691A603B685B6833
:1032200003F44033002B00F0A2800023FB60564BD8
:103230005B6C554A43F480435364534B5B6C03F41B
:103240008043FB60FB68514AFB699B08023352F8DC
:103250002330BB61FB6903F003039B000F2202FADA
:1032600003F3DB43BA691340BB617B68484A93426E
:1032700019D07B68474A934213D07B68464A9342F1
:103280000DD07B68454A934207D07B68444A9342FD
:1032900001D1042308E0072306E0032304E002230E
:1032A00002E0012300E00023FA6902F00302920029
:1032B0009340BA691343BB613449FB699B080233ED
:1032C000BA6941F82320374B9B68BB613B69DB43FC
:1032D000BA691340BB613B685B6803F48013002B41
:1032E00003D0BA693B691343BB612E4ABB69936043
:1032F0002C4BDB68BB613B69DB43BA691340BB61A4
:103300003B685B6803F40013002B03D0BA693B6988
:103310001343BB61234ABB69D360224B5B68BB612B
:103320003B69DB43BA691340BB613B685B6803F4EC
:103330000033002B03D0BA693B691343BB61194AC0
:10334000BB695360174B1B68BB613B69DB43BA69C0
:103350001340BB613B685B6803F48033002B03D0F0
:10336000BA693B691343BB610E4ABB691360FB69D1
:103370000133FB61FB690F2B7FF6A2AE00BF00BFDC
:103380002437BD4680BC70470038024000380140F9
:10339000000002400004024000080240000C02400D
:1033A00000100240003C014080B485B000AF78605E
:1033B0000B467B807B681A697B881340002B02D008
:1033C0000123FB7301E00023FB73FB7B18461437DA
:1033D000BD4680BC704780B483B000AF78600B46B8
:1033E0007B8013467B707B78002B03D07A887B68C8
:1033F0009A6103E07B881A047B689A6100BF0C37EE
:10340000BD4680BC7047000080B586B000AF7860D4
:103410007B68002B01D1012367E27B681B6803F006
:103420000103002B75D0884B9B6803F00C03042B21
:103430000CD0854B9B6803F00C03082B12D1824BF8
:103440005B6803F48003B3F5800F0BD17E4B1B68E0
:1034500003F40033002B5BD07B685B68002B57D1F3
:10346000012342E27B685B68B3F5803F06D1764B6F
:103470001B68754A43F4803313601DE07B685B680A
:10348000B3F5A02F0CD1704B1B686F4A43F4802317
:1034900013606D4B1B686C4A43F4803313600BE080
:1034A000694B1B68684A23F480331360664B1B68C2
:1034B000654A23F4802313607B685B68002B13D07C
:1034C000FFF760F9386108E0FFF75CF902463B69F5
:1034D000D31A642B01D9032307E25B4B1B6803F467
:1034E0000033002BF0D014E0FFF74CF9386108E00E
:1034F000FFF748F902463B69D31A642B01D903232D
:10350000F3E1514B1B6803F40033002BF0D100E0D2
:1035100000BF7B681B6803F00203002B63D04A4B9B
:103520009B6803F00C03002B0BD0474B9B6803F008
:103530000C03082B1CD1444B5B6803F48003002B65
:1035400016D1414B1B6803F00203002B05D07B68AA
:10355000DB68012B01D00123C7E13B4B1B6823F043
:10356000F8027B681B69DB00374913430B603AE0C4
:103570007B68DB68002B20D0344B01221A60FFF7F8
:1035800001F9386108E0FFF7FDF802463B69D31AFC
:10359000022B01D90323A8E12B4B1B6803F0020384
:1035A000002BF0D0284B1B6823F0F8027B681B69C6
:1035B000DB00254913430B6015E0244B00221A6001
:1035C000FFF7E0F8386108E0FFF7DCF802463B69F6
:1035D000D31A022B01D9032387E11B4B1B6803F08D
:1035E0000203002BF0D17B681B6803F00803002B5B
:1035F00036D07B685B69002B16D0154B01221A6010
:10360000FFF7C0F8386108E0FFF7BCF802463B69F5
:10361000D31A022B01D9032367E10B4B5B6F03F035
:103620000203002BF0D01BE0094B00221A60FFF7C9
:10363000A9F838610EE0FFF7A5F802463B69D31AF6
:10364000022B07D9032350E1003802400000474213
:10365000800E4742884B5B6F03F00203002BEAD1D8
:103660007B681B6803F00403002B00F097800023A5
:10367000FB75814B1B6C03F08053002B0FD1002393
:10368000BB607D4B1B6C7C4A43F0805313647A4BC8
:103690001B6C03F08053BB60BB680123FB75774B49
:1036A0001B6803F48073002B18D1744B1B68734A9A
:1036B00043F480731360FFF765F8386108E0FFF7A3
:1036C00061F802463B69D31A022B01D903230CE1AE
:1036D0006A4B1B6803F48073002BF0D07B689B68F7
:1036E000012B06D1644B1B6F634A43F00103136740
:1036F0001CE07B689B68052B0CD15F4B1B6F5E4AFF
:1037000043F0040313675C4B1B6F5B4A43F00103F8
:1037100013670BE0584B1B6F574A23F001031367E5
:10372000554B1B6F544A23F0040313677B689B6857
:10373000002B15D0FFF726F838610AE0FFF722F8D2
:1037400002463B69D31A41F28832934201D90323DE
:10375000CBE0494B1B6F03F00203002BEED014E0CB
:10376000FFF710F838610AE0FFF70CF802463B69F2
:10377000D31A41F28832934201D90323B5E03E4B7C
:103780001B6F03F00203002BEED1FB7D012B05D153
:10379000394B1B6C384A23F0805313647B689B6958
:1037A000002B00F0A180344B9B6803F00C03082B26
:1037B0005CD07B689B69022B41D1314B00221A609F
:1037C000FEF7E0FF386108E0FEF7DCFF02463B69E8
:1037D000D31A022B01D9032387E0274B1B6803F080
:1037E0000073002BF0D17B68DA697B681B6A1A438F
:1037F0007B685B6A9B011A437B689B6A5B08013BA1
:103800001B041A437B68DB6A1B061B4913434B608E
:103810001B4B01221A60FEF7B5FF386108E0FEF786
:10382000B1FF02463B69D31A022B01D903235CE0A6
:10383000114B1B6803F00073002BF0D054E0104BC9
:1038400000221A60FEF79EFF386108E0FEF79AFF3B
:1038500002463B69D31A022B01D9032345E0064BEC
:103860001B6803F00073002BF0D13DE07B689B697F
:10387000012B07D1012338E00038024000700040DE
:10388000600047421B4B5B68FB607B689B69012BB8
:1038900028D0FB6803F480027B68DB699A4221D15F
:1038A000FB6803F03F027B681B6A9A421AD1FA68F0
:1038B00047F6C07313407A68526A9201934211D15D
:1038C000FB6803F440327B689B6A5B08013B1B0486
:1038D0009A4207D1FB6803F070627B68DB6A1B06C3
:1038E0009A4201D0012300E0002318461837BD4654
:1038F00080BD00BF0038024080B584B000AF786062
:1039000039607B68002B01D10123CCE0684B1B6838
:1039100003F007033A689A420CD9654B3A68D2B271
:103920001A70634B1B6803F007033A689A4201D090
:103930000123B8E07B681B6803F00203002B20D052
:103940007B681B6803F00403002B05D0594B9B6870
:10395000584A43F4E05393607B681B6803F0080304
:10396000002B05D0534B9B68524A43F4604393604D
:10397000504B9B6823F0F0027B689B684D491343D2
:103980008B607B681B6803F00103002B44D07B68CD
:103990005B68012B07D1474B1B6803F40033002BF6
:1039A00019D101237FE07B685B68022B03D07B6821
:1039B0005B68032B07D13F4B1B6803F00073002BA0
:1039C00009D101236FE03B4B1B6803F00203002B7E
:1039D00001D1012367E0374B9B6823F003027B682A
:1039E0005B68344913438B60FEF7CCFEF8600AE055
:1039F000FEF7C8FE0246FB68D31A41F288329342B2
:103A000001D903234FE02B4B9B6803F00C027B682A
:103A10005B689B009A42EBD1254B1B6803F00703C0
:103A20003A689A420CD2224B3A68D2B21A70204BB2
:103A30001B6803F007033A689A4201D0012332E081
:103A40007B681B6803F00403002B08D0194B9B68AC
:103A500023F4E0527B68DB68164913438B607B6874
:103A60001B6803F00803002B09D0124B9B6823F45A
:103A700060427B681B69DB000E4913438B6000F0DA
:103A800021F802460B4B9B681B0903F00F030A4900
:103A9000CB5C22FA03F3094A1360094B1B681846F2
:103AA000FEF72EFE002318461037BD4680BD00BF2E
:103AB000003C024000380240E88C0008140000205E
:103AC000180000202DE9B04F90B000AF00237B63B9
:103AD0000023FB6300233B630023BB63594B9B68BC
:103AE00003F00C03082B0DD0082B00F2A280002B52
:103AF00002D0042B03D09CE0534BBB639CE0534BA0
:103B0000BB6399E04F4B5B6803F03F037B634D4B16
:103B10005B6803F48003002B27D04A4B5B689B094A
:103B200000223B627A623B6AC3F308000021474BE4
:103B300003FB01F2002300FB03F31344434AA0FB01
:103B40000221F962BA62FA6A1344FB627B6B0022BB
:103B5000BB61FA61D7E90623D7E90A01FDF7DAFA72
:103B600002460B461346FB6355E0364B5B689B09E8
:103B700000223B617A613B69C3F3080A4FF0000BF6
:103B800052465B464FF000004FF00001590141EAF8
:103B9000D261500102460B46B2EB0A0863EB0B09F7
:103BA0004FF000024FF000034FEA891343EA986395
:103BB0004FEA8812B2EB080463EB09054FF00002EC
:103BC0004FF00003EB0043EA5473E20014461D4635
:103BD00014EB0A033B6045EB0B037B604FF00002E4
:103BE0004FF00003D7E9004529468B0220462946BD
:103BF000044643EA945301468A02104619467B6BF9
:103C00000022BB60FA60D7E90223FDF783FA02467F
:103C10000B461346FB630B4B5B681B0C03F0030363
:103C200001335B003B63FA6B3B6BB2FBF3F3BB63AB
:103C300002E0054BBB6300BFBB6B18464037BD4677
:103C4000BDE8B08F003802400024F40040787D01C8
:103C500080B400AF024B1B681846BD4680BC70475D
:103C60001400002080B500AFFFF7F2FF0246054BBD
:103C70009B689B0A03F007030349CB5C22FA03F31A
:103C8000184680BD00380240F88C000880B500AFAF
:103C9000FFF7DEFF0246054B9B685B0B03F0070353
:103CA0000349CB5C22FA03F3184680BD003802407A
:103CB000F88C000880B582B000AF78607B68002B7C
:103CC00001D1012341E07B6893F83D30DBB2002B4A
:103CD00006D17B68002283F83C207868FEF76EFAF4
:103CE0007B68022283F83D207B681A687B68043376
:103CF0001946104600F080FD7B68012283F84620BB
:103D00007B68012283F83E207B68012283F83F20F4
:103D10007B68012283F840207B68012283F84120E0
:103D20007B68012283F842207B68012283F84320CC
:103D30007B68012283F844207B68012283F84520B8
:103D40007B68012283F83D20002318460837BD46D2
:103D500080BD000080B485B000AF78607B6893F8C8
:103D60003D30DBB2012B01D0012344E07B6802220D
:103D700083F83D207B681B68DA687B681B6842F02B
:103D80000102DA607B681B681D4A934218D07B6889
:103D90001B68B3F1804F13D07B681B68194A9342AC
:103DA0000ED07B681B68184A934209D07B681B6859
:103DB000164A934204D07B681B68154A934211D17E
:103DC0007B681B689B6803F00703FB60FB68062B9E
:103DD00010D07B681B681A687B681B6842F0010280
:103DE0001A6007E07B681B681A687B681B6842F0F2
:103DF00001021A60002318461437BD4680BC704784
:103E0000000001400004004000080040000C004099
:103E10000040014080B582B000AF78607B68002B25
:103E200001D1012341E07B6893F83D30DBB2002BE8
:103E300006D17B68002283F83C20786800F039F8CE
:103E40007B68022283F83D207B681A687B68043314
:103E50001946104600F0D0FC7B68012283F846200A
:103E60007B68012283F83E207B68012283F83F2093
:103E70007B68012283F840207B68012283F841207F
:103E80007B68012283F842207B68012283F843206B
:103E90007B68012283F844207B68012283F8452057
:103EA0007B68012283F83D20002318460837BD4671
:103EB00080BD80B483B000AF786000BF0C37BD46D2
:103EC00080BC704780B584B000AF786039603B68D3
:103ED000002B09D17B6893F83E30DBB2012B14BF75
:103EE00001230023DBB222E03B68042B09D17B686D
:103EF00093F83F30DBB2012B14BF01230023DBB268
:103F000015E03B68082B09D17B6893F84030DBB2A1
:103F1000012B14BF01230023DBB208E07B6893F878
:103F20004130DBB2012B14BF01230023DBB2002B95
:103F300001D0012368E03B68002B04D17B6802229A
:103F400083F83E2013E03B68042B04D17B680222F7
:103F500083F83F200BE03B68082B04D17B680222EA
:103F600083F8402003E07B68022283F841207B68CD
:103F70001B6801223968184600F0DAFE7B681B686E
:103F8000234A934207D17B681B685A6C7B681B6885
:103F900042F400425A647B681B681D4A934218D061
:103FA0007B681B68B3F1804F13D07B681B68194A8C
:103FB00093420ED07B681B68174A934209D07B68F6
:103FC0001B68164A934204D07B681B68144A9342CC
:103FD00011D17B681B689B6803F00703FB60FB68DB
:103FE000062B10D07B681B681A687B681B6842F040
:103FF00001021A6007E07B681B681A687B681B680F
:1040000042F001021A60002318461037BD4680BDF9
:10401000000001400004004000080040000C004087
:104020000040014080B586B000AF786039607B68A1
:10403000002B01D1012397E07B6893F83D30DBB280
:10404000002B06D17B68002283F83C207868FEF7BD
:1040500039F87B68022283F83D207B681B689B68E7
:104060007A68126823F4804323F0070393607B6827
:104070001A687B6804331946104600F0BDFB7B6864
:104080001B689B687B617B681B689B693B617B68E5
:104090001B681B6AFB603B681B687A6913437B6182
:1040A0003B6923F4407323F003033B613B689A6848
:1040B0003B689B691B0213433A6913433B613B69AD
:1040C00023F4406323F00C033B613B6923F470430A
:1040D00023F0F0033B613B68DA683B68DB691B0255
:1040E00013433A6913433B613B681B691A013B6800
:1040F0001B6A1B0313433A6913433B61FB6823F0BC
:104100002203FB60FB6823F08803FB603B685A686E
:104110003B685B691B011343FA681343FB607B68D0
:104120001B687A699A607B681B683A699A617B6848
:104130001B68FA681A627B68012283F846207B6854
:10414000012283F83E207B68012283F83F207B68B0
:10415000012283F842207B68012283F843207B6898
:10416000012283F83D20002318461837BD4680BD44
:1041700080B584B000AF786039607B6893F83E30DA
:10418000FB737B6893F83F30BB737B6893F84230D6
:104190007B737B6893F843303B733B68002B10D1F3
:1041A000FB7B012B02D17B7B012B01D0012369E03A
:1041B0007B68022283F83E207B68022283F842203B
:1041C00031E03B68042B10D1BB7B012B02D13B7B40
:1041D000012B01D0012355E07B68022283F83F20A8
:1041E0007B68022283F843201DE0FB7B012B08D172
:1041F000BB7B012B05D17B7B012B02D13B7B012BB0
:1042000001D001233EE07B68022283F83E207B68D8
:10421000022283F83F207B68022283F842207B68D9
:10422000022283F843203B68002B03D03B68042B19
:1042300008D00FE07B681B6801220021184600F0BF
:1042400077FD16E07B681B6801220421184600F008
:104250006FFD0EE07B681B6801220021184600F00C
:1042600067FD7B681B6801220421184600F060FD91
:1042700000BF7B681B681A687B681B6842F00102FC
:104280001A60002318461037BD4680BD80B582B045
:1042900000AF78607B681B681B6903F00203022B88
:1042A00022D17B681B68DB6803F00203022B1BD161
:1042B0007B681B686FF002021A617B6801221A7723
:1042C0007B681B689B6903F00303002B03D07868AD
:1042D00000F076FA05E0786800F069FA786800F096
:1042E00078FA7B6800221A777B681B681B6903F0E9
:1042F0000403042B22D17B681B68DB6803F00403F2
:10430000042B1BD17B681B686FF004021A617B6869
:1043100002221A777B681B689B6903F44073002BA9
:1043200003D0786800F04CFA05E0786800F03FFAB6
:10433000786800F04EFA7B6800221A777B681B6869
:104340001B6903F00803082B22D17B681B68DB681C
:1043500003F00803082B1BD17B681B686FF0080271
:104360001A617B6804221A777B681B68DB6903F09B
:104370000303002B03D0786800F022FA05E0786888
:1043800000F015FA786800F024FA7B6800221A77AA
:104390007B681B681B6903F01003102B22D17B681C
:1043A0001B68DB6803F01003102B1BD17B681B68B4
:1043B0006FF010021A617B6808221A777B681B680D
:1043C000DB6903F44073002B03D0786800F0F8F940
:1043D00005E0786800F0EBF9786800F0FAF97B689E
:1043E00000221A777B681B681B6903F00103012B0D
:1043F0000ED17B681B68DB6803F00103012B07D13A
:104400007B681B686FF001021A617868FDF778FD20
:104410007B681B681B6903F08003802B0ED17B68CF
:104420001B68DB6803F08003802B07D17B681B6867
:104430006FF080021A61786800F013FD7B681B68DA
:104440001B6903F04003402B0ED17B681B68DB68BF
:1044500003F04003402B07D17B681B686FF04002DC
:104460001A61786800F0BEF97B681B681B6903F06D
:104470002003202B0ED17B681B68DB6803F0200330
:10448000202B07D17B681B686FF020021A617868C7
:1044900000F0DEFC00BF0837BD4680BD80B586B0A9
:1044A00000AFF860B9607A600023FB75FB6893F891
:1044B0003C30012B01D10223AEE0FB68012283F8DE
:1044C0003C207B680C2B00F29F8001A252F823F065
:1044D0000545000809460008094600080946000885
:1044E0004545000809460008094600080946000835
:1044F00087450008094600080946000809460008E3
:10450000C7450008FB681B68B968184600F0F2F957
:10451000FB681B689A69FB681B6842F008029A6195
:10452000FB681B689A69FB681B6822F004029A61A9
:10453000FB681B689969BB681A69FB681B680A43BA
:104540009A6164E0FB681B68B968184600F038FAA5
:10455000FB681B689A69FB681B6842F400629A61F9
:10456000FB681B689A69FB681B6822F480629A6189
:10457000FB681B689969BB681B691A02FB681B68AA
:104580000A439A6143E0FB681B68B968184600F06B
:1045900081FAFB681B68DA69FB681B6842F0080255
:1045A000DA61FB681B68DA69FB681B6822F00402A9
:1045B000DA61FB681B68D969BB681A69FB681B680C
:1045C0000A43DA6123E0FB681B68B968184600F00B
:1045D000CBFAFB681B68DA69FB681B6842F400626F
:1045E000DA61FB681B68DA69FB681B6822F4806289
:1045F000DA61FB681B68D969BB681B691A02FB6832
:104600001B680A43DA6102E00123FB7500BFFB6807
:10461000002283F83C20FB7D18461837BD4680BD3C
:1046200080B584B000AF786039600023FB737B688D
:1046300093F83C30012B01D10223B4E07B680122C6
:1046400083F83C207B68022283F83D207B681B684E
:104650009B68BB60BB6823F07703BB60BB6823F437
:104660007F43BB607B681B68BA689A603B681B68C5
:10467000B3F5005F3ED0B3F5005F00F28780B3F57D
:10468000805F00F08680B3F5805F7FD8702B1AD0F2
:10469000702B7BD8602B50D0602B77D8502B3CD020
:1046A000502B73D8402B58D0402B6FD8302B64D070
:1046B000302B6BD8202B60D0202B67D8002B5CD000
:1046C000102B5AD062E07B6818683B6899683B6899
:1046D0005A683B68DB6800F00CFB7B681B689B68D2
:1046E000BB60BB6843F07703BB607B681B68BA683C
:1046F0009A604FE07B6818683B6899683B685A6825
:104700003B68DB6800F0F5FA7B681B689A687B6899
:104710001B6842F480429A603CE07B6818683B6802
:1047200059683B68DB681A4600F06CFA7B681B68C6
:104730005021184600F0C3FA2CE07B6818683B68EB
:1047400059683B68DB681A4600F08AFA7B681B6888
:104750006021184600F0B3FA1CE07B6818683B68DB
:1047600059683B68DB681A4600F04CFA7B681B68A6
:104770004021184600F0A3FA0CE07B681A683B68F9
:104780001B681946104600F09AFA03E00123FB73F8
:1047900000E000BF7B68012283F83D207B68002297
:1047A00083F83C20FB7B18461037BD4680BD80B4A3
:1047B00083B000AF786000BF0C37BD4680BC704747
:1047C00080B483B000AF786000BF0C37BD4680BCBA
:1047D000704780B483B000AF786000BF0C37BD462F
:1047E00080BC704780B483B000AF786000BF0C37E6
:1047F000BD4680BC7047000080B485B000AF7860D3
:1048000039607B681B68FB607B68334A93420FD03A
:104810007B68B3F1804F0BD07B68304A934207D05E
:104820007B682F4A934203D07B682E4A934208D17B
:10483000FB6823F07003FB603B685B68FA68134316
:10484000FB607B68244A93421BD07B68B3F1804FA6
:1048500017D07B68214A934213D07B68204A934249
:104860000FD07B681F4A93420BD07B681E4A93424D
:1048700007D07B681D4A934203D07B681C4A934251
:1048800008D1FB6823F44073FB603B68DB68FA687F
:104890001343FB60FB6823F080023B685B691343B2
:1048A000FB607B68FA681A603B689A687B68DA622A
:1048B0003B681A687B689A627B68074A934203D117
:1048C0003B681A697B681A637B6801225A6100BFE2
:1048D0001437BD4680BC7047000001400004004012
:1048E00000080040000C004000400140004401402E
:1048F0000048014080B487B000AF786039607B68C1
:104900001B6A23F001027B681A627B681B6A7B6169
:104910007B685B683B617B689B69FB60FB6823F09D
:104920007003FB60FB6823F00303FB603B681B68BC
:10493000FA681343FB607B6923F002037B613B68E9
:104940009B687A6913437B617B681C4A93420CD154
:104950007B6923F008037B613B68DB687A6913435A
:104960007B617B6923F004037B617B68134A93427C
:1049700011D13B6923F480733B613B6923F40073DD
:104980003B613B685B693A6913433B613B689B69E8
:104990003A6913433B617B683A695A607B68FA68FD
:1049A0009A613B685A687B685A637B687A691A62C5
:1049B00000BF1C37BD4680BC704700BF00000140EF
:1049C00080B487B000AF786039607B681B6A23F0E1
:1049D00010027B681A627B681B6A7B617B685B687C
:1049E0003B617B689B69FB60FB6823F4E043FB60F1
:1049F000FB6823F44073FB603B681B681B02FA688A
:104A00001343FB607B6923F020037B613B689B6859
:104A10001B017A6913437B617B681D4A93420DD168
:104A20007B6923F080037B613B68DB681B017A694B
:104A300013437B617B6923F040037B617B68144AED
:104A4000934213D13B6923F480633B613B6923F4B8
:104A500000633B613B685B699B003A6913433B61C0
:104A60003B689B699B003A6913433B617B683A69E9
:104A70005A607B68FA689A613B685A687B689A63F7
:104A80007B687A691A6200BF1C37BD4680BC7047DC
:104A90000000014080B487B000AF786039607B6867
:104AA0001B6A23F480727B681A627B681B6A7B61D5
:104AB0007B685B683B617B68DB69FB60FB6823F0BC
:104AC0007003FB60FB6823F00303FB603B681B681B
:104AD000FA681343FB607B6923F400737B613B68D6
:104AE0009B681B027A6913437B617B681D4A934272
:104AF0000DD17B6923F400637B613B68DB681B029B
:104B00007A6913437B617B6923F480637B617B68F3
:104B1000144A934213D13B6923F480533B613B69B0
:104B200023F400533B613B685B691B013A69134303
:104B30003B613B689B691B013A6913433B617B689E
:104B40003A695A607B68FA68DA613B685A687B6840
:104B5000DA637B687A691A6200BF1C37BD4680BC85
:104B6000704700BF0000014080B487B000AF78609C
:104B700039607B681B6A23F480527B681A627B6809
:104B80001B6A3B617B685B687B617B68DB69FB6000
:104B9000FB6823F4E043FB60FB6823F44073FB6095
:104BA0003B681B681B02FA681343FB603B6923F4F4
:104BB00000533B613B689B681B033A6913433B61AD
:104BC0007B680F4A934209D17B6923F480437B6160
:104BD0003B685B699B017A6913437B617B687A69F7
:104BE0005A607B68FA68DA613B685A687B681A64C5
:104BF0007B683A691A6200BF1C37BD4680BC7047AB
:104C00000000014080B487B000AFF860B9607A60FE
:104C1000FB681B6A7B61FB681B6A23F00102FB686F
:104C20001A62FB689B693B613B6923F0F0033B61BF
:104C30007B681B013A6913433B617B6923F00A03DC
:104C40007B617A69BB6813437B61FB683A699A614F
:104C5000FB687A691A6200BF1C37BD4680BC70478A
:104C600080B487B000AFF860B9607A60FB681B6AF7
:104C700023F01002FB681A62FB689B697B61FB688A
:104C80001B6A3B617B6923F470437B617B681B0378
:104C90007A6913437B613B6923F0A0033B61BB68E6
:104CA0001B013A6913433B61FB687A699A61FB68AF
:104CB0003A691A6200BF1C37BD4680BC704780B499
:104CC00085B000AF786039607B689B68FB60FB68EB
:104CD00023F07003FB603A68FB68134343F007035B
:104CE000FB607B68FA689A6000BF1437BD4680BCE1
:104CF000704780B487B000AFF860B9607A603B60FD
:104D0000FB689B687B617B6923F47F437B613B6825
:104D10001A027B681A43BB6813437A6913437B61A9
:104D2000FB687A699A6000BF1C37BD4680BC70473B
:104D300080B487B000AFF860B9607A60BB6803F0F8
:104D40001F03012202FA03F37B61FB681A6A7B6985
:104D5000DB431A40FB681A62FB681A6ABB6803F0FF
:104D60001F03796801FA03F31A43FB681A6200BF54
:104D70001C37BD4680BC704780B485B000AF7860FA
:104D800039607B6893F83C30012B01D1022350E05D
:104D90007B68012283F83C207B68022283F83D2057
:104DA0007B681B685B68FB607B681B689B68BB60FB
:104DB000FB6823F07003FB603B681B68FA681343D1
:104DC000FB607B681B68FA685A607B681B681B4A3B
:104DD000934218D07B681B68B3F1804F13D07B6877
:104DE0001B68174A93420ED07B681B68154A934292
:104DF00009D07B681B68144A934204D07B681B6807
:104E0000124A93420CD1BB6823F08003BB603B681D
:104E10005B68BA681343BB607B681B68BA689A60BA
:104E20007B68012283F83D207B68002283F83C20C8
:104E3000002318461437BD4680BC7047000001406F
:104E40000004004000080040000C00400040014009
:104E500080B483B000AF786000BF0C37BD4680BC23
:104E6000704780B483B000AF786000BF0C37BD4698
:104E700080BC704780B582B000AF78607B68002B43
:104E800001D101233FE07B6893F83D30DBB2002B7A
:104E900006D17B68002283F83C207868FDF756FA3B
:104EA0007B68242283F83D207B681B68DA687B6876
:104EB0001B6822F40052DA60786800F075FD7B68A8
:104EC0001B681A697B681B6822F490421A617B6830
:104ED0001B685A697B681B6822F02A025A617B684A
:104EE0001B68DA687B681B6842F40052DA607B68F2
:104EF00000221A647B68202283F83D207B682022F0
:104F000083F83E20002318460837BD4680BD80B593
:104F10008AB002AFF860B9603B601346FB800023A3
:104F20007B61FB6893F83D30DBB2202B7CD1BB6802
:104F3000002B02D0FB88002B01D1012375E0FB6818
:104F400093F83C30012B01D102236EE0FB68012273
:104F500083F83C20FB6800221A64FB68212283F856
:104F60003D20FDF70FFC7861FB68FA889A84FB68A6
:104F7000FA88DA84FB689B68B3F5805F08D1FB6828
:104F80001B69002B04D10023FB61BB68BB6103E0FC
:104F9000BB68FB610023BB61FB68002283F83C20F7
:104FA0002AE03B6800937B6900228021F86800F0CA
:104FB000F5FA0346002B01D0032336E0FB69002BF2
:104FC0000BD1BB691B881A46FB681B68C2F3080239
:104FD0005A60BB690233BB6107E0FB691A78FB6862
:104FE0001B685A60FB690133FB61FB68DB8C9BB279
:104FF000013B9AB2FB68DA84FB68DB8C9BB2002B26
:10500000CFD13B6800937B6900224021F86800F013
:10501000C5FA0346002B01D0032306E0FB682022DB
:1050200083F83D20002300E0022318462037BD46C8
:1050300080BD000080B5BAB000AF78607B681B68A7
:105040001B68C7F8E4307B681B68DB68C7F8E03092
:105050007B681B685B69C7F8DC300023C7F8D83071
:105060000023C7F8D430D7F8E43003F00F03C7F8B3
:10507000D830D7F8D830002B0FD1D7F8E43003F070
:105080002003002B09D0D7F8E03003F02003002BD9
:1050900003D0786800F0CDFB56E2D7F8D830002B6B
:1050A00000F0DE80D7F8DC3003F00103002B06D1DE
:1050B000D7F8E03003F49073002B00F0D180D7F8DC
:1050C000E43003F00103002B0BD0D7F8E03003F4F9
:1050D0008073002B05D07B681B6C43F001027B685A
:1050E0001A64D7F8E43003F00403002B0BD0D7F890
:1050F000DC3003F00103002B05D07B681B6C43F010
:1051000002027B681A64D7F8E43003F00203002B34
:105110000BD0D7F8DC3003F00103002B05D07B68FF
:105120001B6C43F004027B681A64D7F8E43003F088
:105130000803002B11D0D7F8E03003F02003002B38
:1051400005D1D7F8DC3003F00103002B05D07B68D4
:105150001B6C43F008027B681A647B681B6C002B95
:1051600000F0ED81D7F8E43003F02003002B08D0E5
:10517000D7F8E03003F02003002B02D0786800F06D
:1051800058FB7B681B685B6903F04003402B0CBF36
:1051900001230023DBB2C7F8D4307B681B6C03F01B
:1051A0000803002B03D1D7F8D430002B4FD07868F8
:1051B00000F062FA7B681B685B6903F04003402BD8
:1051C00041D17B681B681433C7F89C30D7F89C30FA
:1051D00053E8003FC7F89830D7F8983023F04003E1
:1051E000C7F8D0307B681B681433D7F8D020C7F8D5
:1051F000A820C7F8A430D7F8A410D7F8A82041E811
:105200000023C7F8A030D7F8A030002BD9D17B6895
:105210009B6B002B13D07B689B6B7D4A1A657B6868
:105220009B6B1846FDF7E4FC0346002B16D07B6809
:105230009B6B1B6D7A68926B104698470EE07868FE
:1052400000F098F90AE0786800F094F906E07868D0
:1052500000F090F97B6800221A6470E100BF6EE1F3
:105260007B681B6B012B40F04A81D7F8E43003F0D8
:105270001003002B00F04381D7F8E03003F0100357
:10528000002B00F03C810023BB607B681B681B681F
:10529000BB607B681B685B68BB60BB687B681B6826
:1052A0005B6903F04003402B40F0B4807B689B6B4C
:1052B0001B685B68A7F8BE30B7F8BE30002B00F063
:1052C00040817B689B8DB7F8BE209A4280F039817F
:1052D0007B68B7F8BE20DA857B689B6BDB69B3F52A
:1052E000807F00F088807B681B680C33C7F88830AB
:1052F000D7F8883053E8003FC7F88430D7F88430B7
:1053000023F48073C7F8B8307B681B680C33D7F878
:10531000B820C7F89420C7F89030D7F89010D7F885
:10532000942041E80023C7F88C30D7F88C30002B4C
:10533000D9D17B681B6814337B677B6F53E8003FD0
:105340003B673B6F23F00103C7F8B4307B681B68F1
:105350001433D7F8B420C7F88020FB67F96FD7F86B
:10536000802041E80023BB67BB6F002BE1D17B6845
:105370001B6814333B663B6E53E8003FFB65FB6DD7
:1053800023F04003C7F8B0307B681B681433D7F8AC
:10539000B020FA66BB66B96EFA6E41E800237B6600
:1053A0007B6E002BE3D17B68202283F83E207B6854
:1053B00000221A637B681B680C33FB64FB6C53E8A8
:1053C000003FBB64BB6C23F01003C7F8AC307B68B4
:1053D0001B680C33D7F8AC20BA657B65796DBA6D64
:1053E00041E800233B653B6D002BE3D17B689B6B61
:1053F0001846FDF78DFB7B689A8D7B68DB8D9BB231
:10540000D31A9BB21946786800F0BDF899E000BF46
:105410003D5700087B689A8D7B68DB8D9BB2D31A61
:10542000A7F8CE307B68DB8D9BB2002B00F08B8021
:10543000B7F8CE30002B00F086807B681B680C33F9
:10544000BB63BB6B53E8003F7B637B6B23F49073C0
:10545000C7F8C8307B681B680C33D7F8C8207A645B
:105460003B64396C7A6C41E80023FB63FB6B002BD7
:10547000E3D17B681B6814337B627B6A53E8003F8F
:105480003B623B6A23F00103C7F8C4307B681B68AA
:105490001433D7F8C4203A63FB62F96A3A6B41E8E7
:1054A0000023BB62BB6A002BE3D17B68202283F818
:1054B0003E207B6800221A637B681B680C333B61CB
:1054C0003B6953E8003FFB60FB6823F01003C7F81B
:1054D000C0307B681B680C33D7F8C020FA61BB6111
:1054E000B969FA6941E800237B617B69002BE3D14C
:1054F000B7F8CE301946786800F045F823E0D7F8C1
:10550000E43003F08003002B09D0D7F8E03003F03B
:105510008003002B03D0786800F024F914E0D7F85A
:10552000E43003F04003002B0ED0D7F8E03003F056
:105530004003002B08D0786800F063F904E000BF56
:1055400002E000BF00E000BFE837BD4680BD00BFFD
:1055500080B483B000AF786000BF0C37BD4680BC1C
:10556000704780B483B000AF786000BF0C37BD4691
:1055700080BC704780B483B000AF786000BF0C3748
:10558000BD4680BC704780B483B000AF78600B46E6
:105590007B8000BF0C37BD4680BC704780B590B0A3
:1055A00000AFF860B9603B601346FB7150E0BB6C24
:1055B000B3F1FF3F4CD0BB6C002B07D0FDF7E2F8F6
:1055C00002463B68D31ABA6C9A4241D2FB681B6808
:1055D0000C33BB62BB6A53E8003F7B627B6A23F4F7
:1055E000D073FB63FB681B680C33FA6B7A633B6315
:1055F000396B7A6B41E80023FB62FB6A002BE5D133
:10560000FB681B6814337B617B6953E8003F3B6197
:105610003B6923F00103BB63FB681B681433BA6B5F
:105620003A62FB61F9693A6A41E80023BB61BB69F0
:10563000002BE5D1FB68202283F83D20FB68202267
:1056400083F83E20FB68002283F83C2003230FE010
:10565000FB681B681A68BB681340BA689A420CBFA3
:1056600001230023DBB21A46FB799A429FD0002324
:1056700018464037BD4680BD80B495B000AF786015
:105680007B681B680C337B637B6B53E8003F3B6399
:105690003B6B23F49073FB647B681B680C33FA6CE0
:1056A0003A64FB63F96B3A6C41E80023BB63BB6B64
:1056B000002BE5D17B681B6814333B623B6A53E8DF
:1056C000003FFB61FB6923F00103BB647B681B683F
:1056D0001433BA6CFA62BB62B96AFA6A41E8002311
:1056E0007B627B6A002BE5D17B681B6B012B19D198
:1056F0007B681B680C33FB60FB6853E8003FBB60B2
:10570000BB6823F010037B647B681B680C337A6CE6
:10571000BA617B617969BA6941E800233B613B6901
:10572000002BE5D17B68202283F83E207B68002295
:105730001A6300BF5437BD4680BC704780B584B043
:1057400000AF78607B689B6BFB60FB680022DA85AA
:10575000FB680022DA84F868FFF70CFF00BF1037FF
:10576000BD4680BD80B485B000AF78607B6893F89B
:105770003D30DBB2212B3ED17B689B68B3F5805F67
:1057800014D17B681B69002B10D17B681B6AFB60FE
:10579000FB681B881A467B681B68C2F308025A60C4
:1057A0007B681B6A9A1C7B681A6208E07B681B6A2C
:1057B000591C7A6811621A787B681B685A607B688A
:1057C000DB8C9BB2013B9BB27A681946D184002BDB
:1057D0000FD17B681B68DA687B681B6822F0800247
:1057E000DA607B681B68DA687B681B6842F04002FD
:1057F000DA60002300E0022318461437BD4680BC5F
:10580000704780B582B000AF78607B681B68DA684B
:105810007B681B6822F04002DA607B68202283F8F4
:105820003D207868FFF794FE002318460837BD46F0
:1058300080BD80B58CB000AF78607B6893F83E3057
:10584000DBB2222B40F0AB807B689B68B3F5805FB6
:1058500017D17B681B69002B13D10023FB627B6887
:105860009B6ABB627B681B685B689BB2C3F30803DF
:105870009AB2BB6A1A807B689B6A9A1C7B689A62A0
:1058800026E07B689B6AFB620023BB627B689B68A7
:10589000B3F5805F07D07B689B68002B0AD17B68DB
:1058A0001B69002B06D17B681B685B68DAB2FB6A58
:1058B0001A7008E07B681B685B68DBB203F07F034B
:1058C000DAB2FB6A1A707B689B6A5A1C7B689A6220
:1058D0007B68DB8D9BB2013B9BB27A681946D18510
:1058E000002B5AD17B681B68DA687B681B6822F042
:1058F0002002DA607B681B68DA687B681B6822F428
:105900008072DA607B681B685A697B681B6822F0CA
:1059100001025A617B68202283F83E207B681B6B62
:10592000012B35D17B6800221A637B681B680C331E
:105930007B617B6953E8003F3B613B6923F01003C7
:105940007B627B681B680C337A6A3A62FB61F96997
:105950003A6A41E80023BB61BB69002BE5D17B6853
:105960001B681B6803F01003102B0AD10023FB6097
:105970007B681B681B68FB607B681B685B68FB605F
:10598000FB687B689B8D19467868FFF7FCFD02E099
:105990007868FFF7E6FD002302E0002300E0022321
:1059A00018463037BD4680BD2DE9B04FC0B000AFBE
:1059B000C7F8F400D7F8F4301B681B6923F4405093
:1059C000D7F8F430D968D7F8F4301A6840EA010300
:1059D0001361D7F8F4309A68D7F8F4301B691A438A
:1059E000D7F8F4305B691A43D7F8F430DB69134316
:1059F000C7F8F830D7F8F4301B68DB6823F4164199
:105A000021F00C01D7F8F4301A68D7F8F8300B43BE
:105A1000D360D7F8F4301B685B6923F44070D7F883
:105A2000F4309969D7F8F4301A6840EA01035361F9
:105A3000D7F8F4301A68914B9A4205D0D7F8F43071
:105A40001A688F4B9A4204D1FEF720F9C7F8FC0080
:105A500003E0FEF707F9C7F8FC00D7F8F430DB697C
:105A6000B3F5004F40F01081D7F8FC300022C7F8A2
:105A7000E830C7F8EC20D7E93A4522462B46911882
:105A8000B9655B41FB65D7E91623204629460446E4
:105A900012EB04080C4643EB04094FF000024FF0F0
:105AA00000034FEAC90343EA58734FEAC80290461D
:105AB0009946034618EB0303C7F8E0300B4649EB61
:105AC0000303C7F8E430D7F8F4305B680022C7F866
:105AD000D830C7F8DC20D7E936120B46DB183B6517
